{
  "_format": "hh-sol-artifact-1",
  "contractName": "Blog",
  "sourceName": "contracts/Blog.sol",
  "abi": [
    {
      "inputs": [
        {
          "internalType": "string",
          "name": "_name",
          "type": "string"
        }
      ],
      "stateMutability": "nonpayable",
      "type": "constructor"
    },
    {
      "anonymous": false,
      "inputs": [
        {
          "indexed": false,
          "internalType": "uint256",
          "name": "id",
          "type": "uint256"
        },
        {
          "indexed": false,
          "internalType": "string",
          "name": "title",
          "type": "string"
        },
        {
          "indexed": false,
          "internalType": "string",
          "name": "hash",
          "type": "string"
        },
        {
          "indexed": false,
          "internalType": "string",
          "name": "tags",
          "type": "string"
        }
      ],
      "name": "PostCreated",
      "type": "event"
    },
    {
      "anonymous": false,
      "inputs": [
        {
          "indexed": false,
          "internalType": "uint256",
          "name": "id",
          "type": "uint256"
        },
        {
          "indexed": false,
          "internalType": "string",
          "name": "title",
          "type": "string"
        },
        {
          "indexed": false,
          "internalType": "string",
          "name": "hash",
          "type": "string"
        },
        {
          "indexed": false,
          "internalType": "string",
          "name": "tags",
          "type": "string"
        },
        {
          "indexed": false,
          "internalType": "bool",
          "name": "published",
          "type": "bool"
        }
      ],
      "name": "PostUpdated",
      "type": "event"
    },
    {
      "inputs": [
        {
          "internalType": "string",
          "name": "title",
          "type": "string"
        },
        {
          "internalType": "string",
          "name": "hash",
          "type": "string"
        },
        {
          "internalType": "string",
          "name": "tags",
          "type": "string"
        }
      ],
      "name": "createPost",
      "outputs": [],
      "stateMutability": "nonpayable",
      "type": "function"
    },
    {
      "inputs": [
        {
          "internalType": "string",
          "name": "hash",
          "type": "string"
        }
      ],
      "name": "fetchPost",
      "outputs": [
        {
          "components": [
            {
              "internalType": "uint256",
              "name": "id",
              "type": "uint256"
            },
            {
              "internalType": "string",
              "name": "title",
              "type": "string"
            },
            {
              "internalType": "string",
              "name": "content",
              "type": "string"
            },
            {
              "internalType": "string",
              "name": "tags",
              "type": "string"
            },
            {
              "internalType": "bool",
              "name": "published",
              "type": "bool"
            }
          ],
          "internalType": "struct Blog.Post",
          "name": "",
          "type": "tuple"
        }
      ],
      "stateMutability": "view",
      "type": "function"
    },
    {
      "inputs": [],
      "name": "fetchPosts",
      "outputs": [
        {
          "components": [
            {
              "internalType": "uint256",
              "name": "id",
              "type": "uint256"
            },
            {
              "internalType": "string",
              "name": "title",
              "type": "string"
            },
            {
              "internalType": "string",
              "name": "content",
              "type": "string"
            },
            {
              "internalType": "string",
              "name": "tags",
              "type": "string"
            },
            {
              "internalType": "bool",
              "name": "published",
              "type": "bool"
            }
          ],
          "internalType": "struct Blog.Post[]",
          "name": "",
          "type": "tuple[]"
        }
      ],
      "stateMutability": "view",
      "type": "function"
    },
    {
      "inputs": [],
      "name": "name",
      "outputs": [
        {
          "internalType": "string",
          "name": "",
          "type": "string"
        }
      ],
      "stateMutability": "view",
      "type": "function"
    },
    {
      "inputs": [],
      "name": "owner",
      "outputs": [
        {
          "internalType": "address",
          "name": "",
          "type": "address"
        }
      ],
      "stateMutability": "view",
      "type": "function"
    },
    {
      "inputs": [
        {
          "internalType": "address",
          "name": "newOwner",
          "type": "address"
        }
      ],
      "name": "transferOwnership",
      "outputs": [],
      "stateMutability": "nonpayable",
      "type": "function"
    },
    {
      "inputs": [
        {
          "internalType": "string",
          "name": "_name",
          "type": "string"
        }
      ],
      "name": "updateName",
      "outputs": [],
      "stateMutability": "nonpayable",
      "type": "function"
    },
    {
      "inputs": [
        {
          "internalType": "uint256",
          "name": "postId",
          "type": "uint256"
        },
        {
          "internalType": "string",
          "name": "title",
          "type": "string"
        },
        {
          "internalType": "string",
          "name": "hash",
          "type": "string"
        },
        {
          "internalType": "string",
          "name": "tags",
          "type": "string"
        },
        {
          "internalType": "bool",
          "name": "published",
          "type": "bool"
        }
      ],
      "name": "updatePost",
      "outputs": [],
      "stateMutability": "nonpayable",
      "type": "function"
    }
  ],
  "bytecode": "0x60806040523480156200001157600080fd5b5060405162001e0138038062001e018339818101604052810190620000379190620002d5565b620000836040518060400160405280601981526020017f4465706c6f79696e6720426c6f672077697468206e616d653a0000000000000081525082620000e460201b62000ca21760201c565b80600090805190602001906200009b929190620001b3565b5033600160006101000a81548173ffffffffffffffffffffffffffffffffffffffff021916908373ffffffffffffffffffffffffffffffffffffffff1602179055505062000522565b620001868282604051602401620000fd9291906200035b565b6040516020818303038152906040527f4b5c4277000000000000000000000000000000000000000000000000000000007bffffffffffffffffffffffffffffffffffffffffffffffffffffffff19166020820180517bffffffffffffffffffffffffffffffffffffffffffffffffffffffff83818316178352505050506200018a60201b60201c565b5050565b60008151905060006a636f6e736f6c652e6c6f679050602083016000808483855afa5050505050565b828054620001c19062000447565b90600052602060002090601f016020900481019282620001e5576000855562000231565b82601f106200020057805160ff191683800117855562000231565b8280016001018555821562000231579182015b828111156200023057825182559160200191906001019062000213565b5b50905062000240919062000244565b5090565b5b808211156200025f57600081600090555060010162000245565b5090565b60006200027a6200027484620003bf565b62000396565b9050828152602081018484840111156200029357600080fd5b620002a084828562000411565b509392505050565b600082601f830112620002ba57600080fd5b8151620002cc84826020860162000263565b91505092915050565b600060208284031215620002e857600080fd5b600082015167ffffffffffffffff8111156200030357600080fd5b6200031184828501620002a8565b91505092915050565b60006200032782620003f5565b62000333818562000400565b93506200034581856020860162000411565b620003508162000511565b840191505092915050565b600060408201905081810360008301526200037781856200031a565b905081810360208301526200038d81846200031a565b90509392505050565b6000620003a2620003b5565b9050620003b082826200047d565b919050565b6000604051905090565b600067ffffffffffffffff821115620003dd57620003dc620004e2565b5b620003e88262000511565b9050602081019050919050565b600081519050919050565b600082825260208201905092915050565b60005b838110156200043157808201518184015260208101905062000414565b8381111562000441576000848401525b50505050565b600060028204905060018216806200046057607f821691505b60208210811415620004775762000476620004b3565b5b50919050565b620004888262000511565b810181811067ffffffffffffffff82111715620004aa57620004a9620004e2565b5b80604052505050565b7f4e487b7100000000000000000000000000000000000000000000000000000000600052602260045260246000fd5b7f4e487b7100000000000000000000000000000000000000000000000000000000600052604160045260246000fd5b6000601f19601f8301169050919050565b6118cf80620005326000396000f3fe608060405234801561001057600080fd5b50600436106100885760003560e01c80638da5cb5b1161005b5780638da5cb5b14610113578063abaddd7f14610131578063e8a4a1eb1461014f578063f2fde38b1461016b57610088565b806306fdde031461008d57806344828659146100ab5780636e450105146100db57806384da92a7146100f7575b600080fd5b610095610187565b6040516100a29190611426565b60405180910390f35b6100c560048036038101906100c09190610fbc565b610215565b6040516100d2919061147f565b60405180910390f35b6100f560048036038101906100f09190611094565b610428565b005b610111600480360381019061010c9190610fbc565b6106b2565b005b61011b6106cc565b60405161012891906113e9565b60405180910390f35b6101396106f2565b6040516101469190611404565b60405180910390f35b61016960048036038101906101649190610ffd565b610a0d565b005b61018560048036038101906101809190610f93565b610c04565b005b600080546101949061170a565b80601f01602080910402602001604051908101604052809291908181526020018280546101c09061170a565b801561020d5780601f106101e25761010080835404028352916020019161020d565b820191906000526020600020905b8154815290600101906020018083116101f057829003601f168201915b505050505081565b61021d610d8b565b60048260405161022d91906113d2565b90815260200160405180910390206040518060a0016040529081600082015481526020016001820180546102609061170a565b80601f016020809104026020016040519081016040528092919081815260200182805461028c9061170a565b80156102d95780601f106102ae576101008083540402835291602001916102d9565b820191906000526020600020905b8154815290600101906020018083116102bc57829003601f168201915b505050505081526020016002820180546102f29061170a565b80601f016020809104026020016040519081016040528092919081815260200182805461031e9061170a565b801561036b5780601f106103405761010080835404028352916020019161036b565b820191906000526020600020905b81548152906001019060200180831161034e57829003601f168201915b505050505081526020016003820180546103849061170a565b80601f01602080910402602001604051908101604052809291908181526020018280546103b09061170a565b80156103fd5780601f106103d2576101008083540402835291602001916103fd565b820191906000526020600020905b8154815290600101906020018083116103e057829003601f168201915b505050505081526020016004820160009054906101000a900460ff1615151515815250509050919050565b600160009054906101000a900473ffffffffffffffffffffffffffffffffffffffff1673ffffffffffffffffffffffffffffffffffffffff163373ffffffffffffffffffffffffffffffffffffffff161461048257600080fd5b6000600360008781526020019081526020016000209050848160010190805190602001906104b1929190610dbc565b50818160040160006101000a81548160ff021916908315150217905550838160020190805190602001906104e6929190610dbc565b50828160030190805190602001906104ff929190610dbc565b5080600360008881526020019081526020016000206000820154816000015560018201816001019080546105329061170a565b61053d929190610e42565b5060028201816002019080546105529061170a565b61055d929190610e42565b5060038201816003019080546105729061170a565b61057d929190610e42565b506004820160009054906101000a900460ff168160040160006101000a81548160ff021916908315150217905550905050806004856040516105bf91906113d2565b90815260200160405180910390206000820154816000015560018201816001019080546105eb9061170a565b6105f6929190610e42565b50600282018160020190805461060b9061170a565b610616929190610e42565b50600382018160030190805461062b9061170a565b610636929190610e42565b506004820160009054906101000a900460ff168160040160006101000a81548160ff0219169083151502179055509050507fb04600e604bae19dc6106021e686e73aee172222c4443c1fb3d81c8f777b931f8160000154868686866040516106a29594939291906114fb565b60405180910390a1505050505050565b80600090805190602001906106c8929190610dbc565b5050565b600160009054906101000a900473ffffffffffffffffffffffffffffffffffffffff1681565b606060006107006002610d3e565b90506000808267ffffffffffffffff811115610745577f4e487b7100000000000000000000000000000000000000000000000000000000600052604160045260246000fd5b60405190808252806020026020018201604052801561077e57816020015b61076b610d8b565b8152602001906001900390816107635790505b50905060005b83811015610a0357600060018261079b919061162a565b90506000600360008381526020019081526020016000209050806040518060a0016040529081600082015481526020016001820180546107da9061170a565b80601f01602080910402602001604051908101604052809291908181526020018280546108069061170a565b80156108535780601f1061082857610100808354040283529160200191610853565b820191906000526020600020905b81548152906001019060200180831161083657829003601f168201915b5050505050815260200160028201805461086c9061170a565b80601f01602080910402602001604051908101604052809291908181526020018280546108989061170a565b80156108e55780601f106108ba576101008083540402835291602001916108e5565b820191906000526020600020905b8154815290600101906020018083116108c857829003601f168201915b505050505081526020016003820180546108fe9061170a565b80601f016020809104026020016040519081016040528092919081815260200182805461092a9061170a565b80156109775780601f1061094c57610100808354040283529160200191610977565b820191906000526020600020905b81548152906001019060200180831161095a57829003601f168201915b505050505081526020016004820160009054906101000a900460ff1615151515815250508486815181106109d4577f4e487b7100000000000000000000000000000000000000000000000000000000600052603260045260246000fd5b60200260200101819052506001856109ec919061162a565b9450505080806109fb9061176d565b915050610784565b5080935050505090565b600160009054906101000a900473ffffffffffffffffffffffffffffffffffffffff1673ffffffffffffffffffffffffffffffffffffffff163373ffffffffffffffffffffffffffffffffffffffff1614610a6757600080fd5b610a716002610d4c565b6000610a7d6002610d3e565b9050600060036000838152602001908152602001600020905081816000018190555084816001019080519060200190610ab7929190610dbc565b5060018160040160006101000a81548160ff02191690831515021790555083816002019080519060200190610aed929190610dbc565b5082816003019080519060200190610b06929190610dbc565b5080600485604051610b1891906113d2565b9081526020016040518091039020600082015481600001556001820181600101908054610b449061170a565b610b4f929190610e42565b506002820181600201908054610b649061170a565b610b6f929190610e42565b506003820181600301908054610b849061170a565b610b8f929190610e42565b506004820160009054906101000a900460ff168160040160006101000a81548160ff0219169083151502179055509050507f5ba192b3d15b81676e027bd868bf729f36ddcdb425644003640136497f09891682868686604051610bf594939291906114a1565b60405180910390a15050505050565b600160009054906101000a900473ffffffffffffffffffffffffffffffffffffffff1673ffffffffffffffffffffffffffffffffffffffff163373ffffffffffffffffffffffffffffffffffffffff1614610c5e57600080fd5b80600160006101000a81548173ffffffffffffffffffffffffffffffffffffffff021916908373ffffffffffffffffffffffffffffffffffffffff16021790555050565b610d3a8282604051602401610cb8929190611448565b6040516020818303038152906040527f4b5c4277000000000000000000000000000000000000000000000000000000007bffffffffffffffffffffffffffffffffffffffffffffffffffffffff19166020820180517bffffffffffffffffffffffffffffffffffffffffffffffffffffffff8381831617835250505050610d62565b5050565b600081600001549050919050565b6001816000016000828254019250508190555050565b60008151905060006a636f6e736f6c652e6c6f679050602083016000808483855afa5050505050565b6040518060a00160405280600081526020016060815260200160608152602001606081526020016000151581525090565b828054610dc89061170a565b90600052602060002090601f016020900481019282610dea5760008555610e31565b82601f10610e0357805160ff1916838001178555610e31565b82800160010185558215610e31579182015b82811115610e30578251825591602001919060010190610e15565b5b509050610e3e9190610ecf565b5090565b828054610e4e9061170a565b90600052602060002090601f016020900481019282610e705760008555610ebe565b82601f10610e815780548555610ebe565b82800160010185558215610ebe57600052602060002091601f016020900482015b82811115610ebd578254825591600101919060010190610ea2565b5b509050610ecb9190610ecf565b5090565b5b80821115610ee8576000816000905550600101610ed0565b5090565b6000610eff610efa84611588565b611563565b905082815260208101848484011115610f1757600080fd5b610f228482856116c8565b509392505050565b600081359050610f3981611854565b92915050565b600081359050610f4e8161186b565b92915050565b600082601f830112610f6557600080fd5b8135610f75848260208601610eec565b91505092915050565b600081359050610f8d81611882565b92915050565b600060208284031215610fa557600080fd5b6000610fb384828501610f2a565b91505092915050565b600060208284031215610fce57600080fd5b600082013567ffffffffffffffff811115610fe857600080fd5b610ff484828501610f54565b91505092915050565b60008060006060848603121561101257600080fd5b600084013567ffffffffffffffff81111561102c57600080fd5b61103886828701610f54565b935050602084013567ffffffffffffffff81111561105557600080fd5b61106186828701610f54565b925050604084013567ffffffffffffffff81111561107e57600080fd5b61108a86828701610f54565b9150509250925092565b600080600080600060a086880312156110ac57600080fd5b60006110ba88828901610f7e565b955050602086013567ffffffffffffffff8111156110d757600080fd5b6110e388828901610f54565b945050604086013567ffffffffffffffff81111561110057600080fd5b61110c88828901610f54565b935050606086013567ffffffffffffffff81111561112957600080fd5b61113588828901610f54565b925050608061114688828901610f3f565b9150509295509295909350565b600061115f83836112ac565b905092915050565b61117081611680565b82525050565b6000611181826115c9565b61118b81856115ec565b93508360208202850161119d856115b9565b8060005b858110156111d957848403895281516111ba8582611153565b94506111c5836115df565b925060208a019950506001810190506111a1565b50829750879550505050505092915050565b6111f481611692565b82525050565b61120381611692565b82525050565b6000611214826115d4565b61121e81856115fd565b935061122e8185602086016116d7565b61123781611843565b840191505092915050565b600061124d826115d4565b611257818561160e565b93506112678185602086016116d7565b61127081611843565b840191505092915050565b6000611286826115d4565b611290818561161f565b93506112a08185602086016116d7565b80840191505092915050565b600060a0830160008301516112c460008601826113b4565b50602083015184820360208601526112dc8282611209565b915050604083015184820360408601526112f68282611209565b915050606083015184820360608601526113108282611209565b915050608083015161132560808601826111eb565b508091505092915050565b600060a08301600083015161134860008601826113b4565b50602083015184820360208601526113608282611209565b9150506040830151848203604086015261137a8282611209565b915050606083015184820360608601526113948282611209565b91505060808301516113a960808601826111eb565b508091505092915050565b6113bd816116be565b82525050565b6113cc816116be565b82525050565b60006113de828461127b565b915081905092915050565b60006020820190506113fe6000830184611167565b92915050565b6000602082019050818103600083015261141e8184611176565b905092915050565b600060208201905081810360008301526114408184611242565b905092915050565b600060408201905081810360008301526114628185611242565b905081810360208301526114768184611242565b90509392505050565b600060208201905081810360008301526114998184611330565b905092915050565b60006080820190506114b660008301876113c3565b81810360208301526114c88186611242565b905081810360408301526114dc8185611242565b905081810360608301526114f08184611242565b905095945050505050565b600060a08201905061151060008301886113c3565b81810360208301526115228187611242565b905081810360408301526115368186611242565b9050818103606083015261154a8185611242565b905061155960808301846111fa565b9695505050505050565b600061156d61157e565b9050611579828261173c565b919050565b6000604051905090565b600067ffffffffffffffff8211156115a3576115a2611814565b5b6115ac82611843565b9050602081019050919050565b6000819050602082019050919050565b600081519050919050565b600081519050919050565b6000602082019050919050565b600082825260208201905092915050565b600082825260208201905092915050565b600082825260208201905092915050565b600081905092915050565b6000611635826116be565b9150611640836116be565b9250827fffffffffffffffffffffffffffffffffffffffffffffffffffffffffffffffff03821115611675576116746117b6565b5b828201905092915050565b600061168b8261169e565b9050919050565b60008115159050919050565b600073ffffffffffffffffffffffffffffffffffffffff82169050919050565b6000819050919050565b82818337600083830152505050565b60005b838110156116f55780820151818401526020810190506116da565b83811115611704576000848401525b50505050565b6000600282049050600182168061172257607f821691505b60208210811415611736576117356117e5565b5b50919050565b61174582611843565b810181811067ffffffffffffffff8211171561176457611763611814565b5b80604052505050565b6000611778826116be565b91507fffffffffffffffffffffffffffffffffffffffffffffffffffffffffffffffff8214156117ab576117aa6117b6565b5b600182019050919050565b7f4e487b7100000000000000000000000000000000000000000000000000000000600052601160045260246000fd5b7f4e487b7100000000000000000000000000000000000000000000000000000000600052602260045260246000fd5b7f4e487b7100000000000000000000000000000000000000000000000000000000600052604160045260246000fd5b6000601f19601f8301169050919050565b61185d81611680565b811461186857600080fd5b50565b61187481611692565b811461187f57600080fd5b50565b61188b816116be565b811461189657600080fd5b5056fea2646970667358221220029cd31a2e5a39cf1946641041e55c84ca596a41313d3e9dded97d5b6f8f260c64736f6c63430008040033",
  "linkReferences": {},
  "deployedLinkReferences": {}
}